{
  "_format": "hh-sol-artifact-1",
  "contractName": "WavePortal",
  "sourceName": "contracts/WavePortal.sol",
  "abi": [
    {
      "inputs": [],
      "stateMutability": "nonpayable",
      "type": "constructor"
    },
    {
      "inputs": [],
      "name": "getTotalArrayWavePerson",
      "outputs": [
        {
          "internalType": "uint256",
          "name": "",
          "type": "uint256"
        }
      ],
      "stateMutability": "view",
      "type": "function"
    },
    {
      "inputs": [],
      "name": "getTotalWaves",
      "outputs": [
        {
          "internalType": "uint256",
          "name": "",
          "type": "uint256"
        }
      ],
      "stateMutability": "view",
      "type": "function"
    },
    {
      "inputs": [],
      "name": "wave",
      "outputs": [],
      "stateMutability": "nonpayable",
      "type": "function"
    }
  ],
  "bytecode": "0x608060405234801561001057600080fd5b5061003c6040518060600160405280602581526020016108fa6025913961004160201b6102e21760201c565b6101c4565b6100dd816040516024016100559190610142565b6040516020818303038152906040527f41304fac000000000000000000000000000000000000000000000000000000007bffffffffffffffffffffffffffffffffffffffffffffffffffffffff19166020820180517bffffffffffffffffffffffffffffffffffffffffffffffffffffffff83818316178352505050506100e060201b60201c565b50565b60008151905060006a636f6e736f6c652e6c6f679050602083016000808483855afa5050505050565b600061011482610164565b61011e818561016f565b935061012e818560208601610180565b610137816101b3565b840191505092915050565b6000602082019050818103600083015261015c8184610109565b905092915050565b600081519050919050565b600082825260208201905092915050565b60005b8381101561019e578082015181840152602081019050610183565b838111156101ad576000848401525b50505050565b6000601f19601f8301169050919050565b610727806101d36000396000f3fe608060405234801561001057600080fd5b50600436106100415760003560e01c80636c94a422146100465780636fe15b44146100645780639a2cdc081461006e575b600080fd5b61004e61008c565b60405161005b91906105b5565b60405180910390f35b61006c61019c565b005b610076610259565b60405161008391906105b5565b60405180910390f35b60006100cc6040518060400160405280601781526020017f676574546f74616c417272617957617665506572736f6e0000000000000000008152506102e2565b60005b6000548110156101905761017c6040518060400160405280601381526020017f576176652061646472657373205b25735d2021000000000000000000000000008152506001838154811061014c577f4e487b7100000000000000000000000000000000000000000000000000000000600052603260045260246000fd5b9060005260206000200160009054906101000a900473ffffffffffffffffffffffffffffffffffffffff1661037b565b60018161018991906105ec565b90506100cf565b60018054905091505090565b60016000808282546101ae91906105ec565b925050819055506101f46040518060400160405280600d81526020017f25732068617320776176656421000000000000000000000000000000000000008152503361037b565b6001339080600181540180825580915050600190039060005260206000200160009091909190916101000a81548173ffffffffffffffffffffffffffffffffffffffff021916908373ffffffffffffffffffffffffffffffffffffffff160217905550565b60006102996040518060400160405280600d81526020017f676574546f74616c5761766573000000000000000000000000000000000000008152506102e2565b6102da6040518060400160405280601781526020017f5765206861766520256420746f74616c20776176657321000000000000000000815250600054610417565b600054905090565b610378816040516024016102f69190610533565b6040516020818303038152906040527f41304fac000000000000000000000000000000000000000000000000000000007bffffffffffffffffffffffffffffffffffffffffffffffffffffffff19166020820180517bffffffffffffffffffffffffffffffffffffffffffffffffffffffff83818316178352505050506104b3565b50565b6104138282604051602401610391929190610555565b6040516020818303038152906040527f319af333000000000000000000000000000000000000000000000000000000007bffffffffffffffffffffffffffffffffffffffffffffffffffffffff19166020820180517bffffffffffffffffffffffffffffffffffffffffffffffffffffffff83818316178352505050506104b3565b5050565b6104af828260405160240161042d929190610585565b6040516020818303038152906040527f9710a9d0000000000000000000000000000000000000000000000000000000007bffffffffffffffffffffffffffffffffffffffffffffffffffffffff19166020820180517bffffffffffffffffffffffffffffffffffffffffffffffffffffffff83818316178352505050506104b3565b5050565b60008151905060006a636f6e736f6c652e6c6f679050602083016000808483855afa5050505050565b6104e581610642565b82525050565b60006104f6826105d0565b61050081856105db565b935061051081856020860161067e565b610519816106e0565b840191505092915050565b61052d81610674565b82525050565b6000602082019050818103600083015261054d81846104eb565b905092915050565b6000604082019050818103600083015261056f81856104eb565b905061057e60208301846104dc565b9392505050565b6000604082019050818103600083015261059f81856104eb565b90506105ae6020830184610524565b9392505050565b60006020820190506105ca6000830184610524565b92915050565b600081519050919050565b600082825260208201905092915050565b60006105f782610674565b915061060283610674565b9250827fffffffffffffffffffffffffffffffffffffffffffffffffffffffffffffffff03821115610637576106366106b1565b5b828201905092915050565b600061064d82610654565b9050919050565b600073ffffffffffffffffffffffffffffffffffffffff82169050919050565b6000819050919050565b60005b8381101561069c578082015181840152602081019050610681565b838111156106ab576000848401525b50505050565b7f4e487b7100000000000000000000000000000000000000000000000000000000600052601160045260246000fd5b6000601f19601f830116905091905056fea26469706673582212203e2ffc347a7354fb2ec1abda27c3dde91469eec7bd06b8486b588df96eb7a1f464736f6c63430008040033596f20796f2c204920616d206120636f6e747261637420616e64204920616d20736d617274",
  "linkReferences": {},
  "deployedLinkReferences": {}
}