{
  "_format": "hh-sol-artifact-1",
  "contractName": "WavePortal",
  "sourceName": "contracts/WavePortal.sol",
  "abi": [
    {
      "inputs": [],
      "stateMutability": "payable",
      "type": "constructor"
    },
    {
      "anonymous": false,
      "inputs": [
        {
          "indexed": true,
          "internalType": "address",
          "name": "from",
          "type": "address"
        },
        {
          "indexed": false,
          "internalType": "uint256",
          "name": "timestamp",
          "type": "uint256"
        },
        {
          "indexed": false,
          "internalType": "string",
          "name": "message",
          "type": "string"
        }
      ],
      "name": "NewWave",
      "type": "event"
    },
    {
      "inputs": [],
      "name": "getAllWaves",
      "outputs": [
        {
          "components": [
            {
              "internalType": "address",
              "name": "waver",
              "type": "address"
            },
            {
              "internalType": "string",
              "name": "message",
              "type": "string"
            },
            {
              "internalType": "uint256",
              "name": "timestamp",
              "type": "uint256"
            }
          ],
          "internalType": "struct WavePortal.Wave[]",
          "name": "",
          "type": "tuple[]"
        }
      ],
      "stateMutability": "view",
      "type": "function"
    },
    {
      "inputs": [],
      "name": "getTotalArrayWavePerson",
      "outputs": [
        {
          "internalType": "uint256",
          "name": "",
          "type": "uint256"
        }
      ],
      "stateMutability": "view",
      "type": "function"
    },
    {
      "inputs": [],
      "name": "getTotalWaves",
      "outputs": [
        {
          "internalType": "uint256",
          "name": "",
          "type": "uint256"
        }
      ],
      "stateMutability": "view",
      "type": "function"
    },
    {
      "inputs": [
        {
          "internalType": "address",
          "name": "",
          "type": "address"
        }
      ],
      "name": "lastWavedAt",
      "outputs": [
        {
          "internalType": "uint256",
          "name": "",
          "type": "uint256"
        }
      ],
      "stateMutability": "view",
      "type": "function"
    },
    {
      "inputs": [
        {
          "internalType": "string",
          "name": "_message",
          "type": "string"
        }
      ],
      "name": "wave",
      "outputs": [],
      "stateMutability": "nonpayable",
      "type": "function"
    }
  ],
  "bytecode": "0x60806040526200004f6040518060400160405280601981526020017f4920414d20534d41525420434f4e54524143542e20504f472e000000000000008152506200007760201b620008231760201c565b606444426200005f9190620001c4565b6200006b919062000261565b60028190555062000308565b62000117816040516024016200008e919062000184565b6040516020818303038152906040527f41304fac000000000000000000000000000000000000000000000000000000007bffffffffffffffffffffffffffffffffffffffffffffffffffffffff19166020820180517bffffffffffffffffffffffffffffffffffffffffffffffffffffffff83818316178352505050506200011a60201b60201c565b50565b60008151905060006a636f6e736f6c652e6c6f679050602083016000808483855afa5050505050565b60006200015082620001a8565b6200015c8185620001b3565b93506200016e8185602086016200022b565b6200017981620002f7565b840191505092915050565b60006020820190508181036000830152620001a0818462000143565b905092915050565b600081519050919050565b600082825260208201905092915050565b6000620001d18262000221565b9150620001de8362000221565b9250827fffffffffffffffffffffffffffffffffffffffffffffffffffffffffffffffff0382111562000216576200021562000299565b5b828201905092915050565b6000819050919050565b60005b838110156200024b5780820151818401526020810190506200022e565b838111156200025b576000848401525b50505050565b60006200026e8262000221565b91506200027b8362000221565b9250826200028e576200028d620002c8565b5b828206905092915050565b7f4e487b7100000000000000000000000000000000000000000000000000000000600052601160045260246000fd5b7f4e487b7100000000000000000000000000000000000000000000000000000000600052601260045260246000fd5b6000601f19601f8301169050919050565b61141580620003186000396000f3fe608060405234801561001057600080fd5b50600436106100575760003560e01c8063449d46c01461005c5780636c94a422146100785780639a2cdc0814610096578063a42a4663146100b4578063bd43a908146100e4575b600080fd5b61007660048036038101906100719190610c05565b610102565b005b610080610521565b60405161008d9190610fb7565b60405180910390f35b61009e610631565b6040516100ab9190610fb7565b60405180910390f35b6100ce60048036038101906100c99190610bdc565b6106ba565b6040516100db9190610fb7565b60405180910390f35b6100ec6106d2565b6040516100f99190610e6e565b60405180910390f35b42600a600460003373ffffffffffffffffffffffffffffffffffffffff1673ffffffffffffffffffffffffffffffffffffffff1681526020019081526020016000205461014f91906110c9565b1061018f576040517f08c379a000000000000000000000000000000000000000000000000000000000815260040161018690610f97565b60405180910390fd5b42600460003373ffffffffffffffffffffffffffffffffffffffff1673ffffffffffffffffffffffffffffffffffffffff1681526020019081526020016000208190555060016000808282546101e591906110c9565b925050819055506001339080600181540180825580915050600190039060005260206000200160009091909190916101000a81548173ffffffffffffffffffffffffffffffffffffffff021916908373ffffffffffffffffffffffffffffffffffffffff16021790555061028f6040518060400160405280601781526020017f257320776176656420772f206d6573736167652025732100000000000000000081525033836108bc565b600360405180606001604052803373ffffffffffffffffffffffffffffffffffffffff16815260200183815260200142815250908060018154018082558091505060019003906000526020600020906003020160009091909190915060008201518160000160006101000a81548173ffffffffffffffffffffffffffffffffffffffff021916908373ffffffffffffffffffffffffffffffffffffffff160217905550602082015181600101908051906020019061034e929190610abc565b506040820151816002015550506064600254424461036c91906110c9565b61037691906110c9565b6103809190611200565b6002819055506103c76040518060400160405280601781526020017f526162646f6d20232067656e657261746564203a20256400000000000000000081525060025461095b565b6032600254116104ce576000655af3107a400090504781111561041f576040517f08c379a000000000000000000000000000000000000000000000000000000000815260040161041690610f57565b60405180910390fd5b60003373ffffffffffffffffffffffffffffffffffffffff168260405161044590610e59565b60006040518083038185875af1925050503d8060008114610482576040519150601f19603f3d011682016040523d82523d6000602084013e610487565b606091505b50509050806104cb576040517f08c379a00000000000000000000000000000000000000000000000000000000081526004016104c290610f77565b60405180910390fd5b50505b3373ffffffffffffffffffffffffffffffffffffffff167f5f7e16dc676677766a70e9c5628aa6c54ddb8b6e5188e2ae1e1f17f1ffbea7164283604051610516929190610fd2565b60405180910390a250565b60006105616040518060400160405280601781526020017f676574546f74616c417272617957617665506572736f6e000000000000000000815250610823565b60005b600054811015610625576106116040518060400160405280601381526020017f576176652061646472657373205b25735d202100000000000000000000000000815250600183815481106105e1577f4e487b7100000000000000000000000000000000000000000000000000000000600052603260045260246000fd5b9060005260206000200160009054906101000a900473ffffffffffffffffffffffffffffffffffffffff166109f7565b60018161061e91906110c9565b9050610564565b60018054905091505090565b60006106716040518060400160405280600d81526020017f676574546f74616c576176657300000000000000000000000000000000000000815250610823565b6106b26040518060400160405280601781526020017f5765206861766520256420746f74616c2077617665732100000000000000000081525060005461095b565b600054905090565b60046020528060005260406000206000915090505481565b60606003805480602002602001604051908101604052809291908181526020016000905b8282101561081a57838290600052602060002090600302016040518060600160405290816000820160009054906101000a900473ffffffffffffffffffffffffffffffffffffffff1673ffffffffffffffffffffffffffffffffffffffff1673ffffffffffffffffffffffffffffffffffffffff16815260200160018201805461077f9061119d565b80601f01602080910402602001604051908101604052809291908181526020018280546107ab9061119d565b80156107f85780601f106107cd576101008083540402835291602001916107f8565b820191906000526020600020905b8154815290600101906020018083116107db57829003601f168201915b50505050508152602001600282015481525050815260200190600101906106f6565b50505050905090565b6108b9816040516024016108379190610e90565b6040516020818303038152906040527f41304fac000000000000000000000000000000000000000000000000000000007bffffffffffffffffffffffffffffffffffffffffffffffffffffffff19166020820180517bffffffffffffffffffffffffffffffffffffffffffffffffffffffff8381831617835250505050610a93565b50565b6109568383836040516024016108d493929190610ee2565b6040516020818303038152906040527fe0e9ad4f000000000000000000000000000000000000000000000000000000007bffffffffffffffffffffffffffffffffffffffffffffffffffffffff19166020820180517bffffffffffffffffffffffffffffffffffffffffffffffffffffffff8381831617835250505050610a93565b505050565b6109f38282604051602401610971929190610f27565b6040516020818303038152906040527f9710a9d0000000000000000000000000000000000000000000000000000000007bffffffffffffffffffffffffffffffffffffffffffffffffffffffff19166020820180517bffffffffffffffffffffffffffffffffffffffffffffffffffffffff8381831617835250505050610a93565b5050565b610a8f8282604051602401610a0d929190610eb2565b6040516020818303038152906040527f319af333000000000000000000000000000000000000000000000000000000007bffffffffffffffffffffffffffffffffffffffffffffffffffffffff19166020820180517bffffffffffffffffffffffffffffffffffffffffffffffffffffffff8381831617835250505050610a93565b5050565b60008151905060006a636f6e736f6c652e6c6f679050602083016000808483855afa5050505050565b828054610ac89061119d565b90600052602060002090601f016020900481019282610aea5760008555610b31565b82601f10610b0357805160ff1916838001178555610b31565b82800160010185558215610b31579182015b82811115610b30578251825591602001919060010190610b15565b5b509050610b3e9190610b42565b5090565b5b80821115610b5b576000816000905550600101610b43565b5090565b6000610b72610b6d84611027565b611002565b905082815260208101848484011115610b8a57600080fd5b610b9584828561115b565b509392505050565b600081359050610bac816113c8565b92915050565b600082601f830112610bc357600080fd5b8135610bd3848260208601610b5f565b91505092915050565b600060208284031215610bee57600080fd5b6000610bfc84828501610b9d565b91505092915050565b600060208284031215610c1757600080fd5b600082013567ffffffffffffffff811115610c3157600080fd5b610c3d84828501610bb2565b91505092915050565b6000610c528383610deb565b905092915050565b610c638161111f565b82525050565b610c728161111f565b82525050565b6000610c8382611068565b610c8d818561108b565b935083602082028501610c9f85611058565b8060005b85811015610cdb5784840389528151610cbc8582610c46565b9450610cc78361107e565b925060208a01995050600181019050610ca3565b50829750879550505050505092915050565b6000610cf882611073565b610d0281856110a7565b9350610d1281856020860161116a565b610d1b816112ed565b840191505092915050565b6000610d3182611073565b610d3b81856110b8565b9350610d4b81856020860161116a565b610d54816112ed565b840191505092915050565b6000610d6c6034836110b8565b9150610d77826112fe565b604082019050919050565b6000610d8f6027836110b8565b9150610d9a8261134d565b604082019050919050565b6000610db260008361109c565b9150610dbd8261139c565b600082019050919050565b6000610dd56008836110b8565b9150610de08261139f565b602082019050919050565b6000606083016000830151610e036000860182610c5a565b5060208301518482036020860152610e1b8282610ced565b9150506040830151610e306040860182610e3b565b508091505092915050565b610e4481611151565b82525050565b610e5381611151565b82525050565b6000610e6482610da5565b9150819050919050565b60006020820190508181036000830152610e888184610c78565b905092915050565b60006020820190508181036000830152610eaa8184610d26565b905092915050565b60006040820190508181036000830152610ecc8185610d26565b9050610edb6020830184610c69565b9392505050565b60006060820190508181036000830152610efc8186610d26565b9050610f0b6020830185610c69565b8181036040830152610f1d8184610d26565b9050949350505050565b60006040820190508181036000830152610f418185610d26565b9050610f506020830184610e4a565b9392505050565b60006020820190508181036000830152610f7081610d5f565b9050919050565b60006020820190508181036000830152610f9081610d82565b9050919050565b60006020820190508181036000830152610fb081610dc8565b9050919050565b6000602082019050610fcc6000830184610e4a565b92915050565b6000604082019050610fe76000830185610e4a565b8181036020830152610ff98184610d26565b90509392505050565b600061100c61101d565b905061101882826111cf565b919050565b6000604051905090565b600067ffffffffffffffff821115611042576110416112be565b5b61104b826112ed565b9050602081019050919050565b6000819050602082019050919050565b600081519050919050565b600081519050919050565b6000602082019050919050565b600082825260208201905092915050565b600081905092915050565b600082825260208201905092915050565b600082825260208201905092915050565b60006110d482611151565b91506110df83611151565b9250827fffffffffffffffffffffffffffffffffffffffffffffffffffffffffffffffff0382111561111457611113611231565b5b828201905092915050565b600061112a82611131565b9050919050565b600073ffffffffffffffffffffffffffffffffffffffff82169050919050565b6000819050919050565b82818337600083830152505050565b60005b8381101561118857808201518184015260208101905061116d565b83811115611197576000848401525b50505050565b600060028204905060018216806111b557607f821691505b602082108114156111c9576111c861128f565b5b50919050565b6111d8826112ed565b810181811067ffffffffffffffff821117156111f7576111f66112be565b5b80604052505050565b600061120b82611151565b915061121683611151565b92508261122657611225611260565b5b828206905092915050565b7f4e487b7100000000000000000000000000000000000000000000000000000000600052601160045260246000fd5b7f4e487b7100000000000000000000000000000000000000000000000000000000600052601260045260246000fd5b7f4e487b7100000000000000000000000000000000000000000000000000000000600052602260045260246000fd5b7f4e487b7100000000000000000000000000000000000000000000000000000000600052604160045260246000fd5b6000601f19601f8301169050919050565b7f547279696e6720746f207769746864726177206d6f7265206d6f6e657920746860008201527f616e2074686520636f6e7472616374206861732e000000000000000000000000602082015250565b7f4661696c656420746f207769746864726177206d6f6e65792066726f6d20636f60008201527f6e74726163742e00000000000000000000000000000000000000000000000000602082015250565b50565b7f5761697420313073000000000000000000000000000000000000000000000000600082015250565b6113d18161111f565b81146113dc57600080fd5b5056fea264697066735822122088fce7498e1252491d6b4d9488b072cbc02772d77fa3ec903e50ecabe5327ac764736f6c63430008040033",
  "linkReferences": {},
  "deployedLinkReferences": {}
}