{
  "_format": "hh-sol-artifact-1",
  "contractName": "WavePortal",
  "sourceName": "contracts/WavePortal.sol",
  "abi": [
    {
      "inputs": [],
      "stateMutability": "payable",
      "type": "constructor"
    },
    {
      "anonymous": false,
      "inputs": [
        {
          "indexed": true,
          "internalType": "address",
          "name": "from",
          "type": "address"
        },
        {
          "indexed": false,
          "internalType": "uint256",
          "name": "timestamp",
          "type": "uint256"
        },
        {
          "indexed": false,
          "internalType": "string",
          "name": "message",
          "type": "string"
        }
      ],
      "name": "NewWave",
      "type": "event"
    },
    {
      "inputs": [],
      "name": "getAllWaves",
      "outputs": [
        {
          "components": [
            {
              "internalType": "address",
              "name": "waver",
              "type": "address"
            },
            {
              "internalType": "string",
              "name": "message",
              "type": "string"
            },
            {
              "internalType": "uint256",
              "name": "timestamp",
              "type": "uint256"
            }
          ],
          "internalType": "struct WavePortal.Wave[]",
          "name": "",
          "type": "tuple[]"
        }
      ],
      "stateMutability": "view",
      "type": "function"
    },
    {
      "inputs": [],
      "name": "getTotalArrayWavePerson",
      "outputs": [
        {
          "internalType": "uint256",
          "name": "",
          "type": "uint256"
        }
      ],
      "stateMutability": "view",
      "type": "function"
    },
    {
      "inputs": [],
      "name": "getTotalWaves",
      "outputs": [
        {
          "internalType": "uint256",
          "name": "",
          "type": "uint256"
        }
      ],
      "stateMutability": "view",
      "type": "function"
    },
    {
      "inputs": [
        {
          "internalType": "string",
          "name": "_message",
          "type": "string"
        }
      ],
      "name": "wave",
      "outputs": [],
      "stateMutability": "nonpayable",
      "type": "function"
    }
  ],
  "bytecode": "0x60806040526200004f6040518060400160405280601981526020017f4920414d20534d41525420434f4e54524143542e20504f472e000000000000008152506200005560201b620006881760201c565b620001e9565b620000f5816040516024016200006c919062000162565b6040516020818303038152906040527f41304fac000000000000000000000000000000000000000000000000000000007bffffffffffffffffffffffffffffffffffffffffffffffffffffffff19166020820180517bffffffffffffffffffffffffffffffffffffffffffffffffffffffff8381831617835250505050620000f860201b60201c565b50565b60008151905060006a636f6e736f6c652e6c6f679050602083016000808483855afa5050505050565b60006200012e8262000186565b6200013a818562000191565b93506200014c818560208601620001a2565b6200015781620001d8565b840191505092915050565b600060208201905081810360008301526200017e818462000121565b905092915050565b600081519050919050565b600082825260208201905092915050565b60005b83811015620001c2578082015181840152602081019050620001a5565b83811115620001d2576000848401525b50505050565b6000601f19601f8301169050919050565b61115980620001f96000396000f3fe608060405234801561001057600080fd5b506004361061004c5760003560e01c8063449d46c0146100515780636c94a4221461006d5780639a2cdc081461008b578063bd43a908146100a9575b600080fd5b61006b60048036038101906100669190610a2c565b6100c7565b005b61007561039e565b6040516100829190610d9b565b60405180910390f35b6100936104ae565b6040516100a09190610d9b565b60405180910390f35b6100b1610537565b6040516100be9190610c72565b60405180910390f35b60016000808282546100d99190610ead565b925050819055506001339080600181540180825580915050600190039060005260206000200160009091909190916101000a81548173ffffffffffffffffffffffffffffffffffffffff021916908373ffffffffffffffffffffffffffffffffffffffff1602179055506101836040518060400160405280601781526020017f257320776176656420772f206d657373616765202573210000000000000000008152503383610721565b600260405180606001604052803373ffffffffffffffffffffffffffffffffffffffff16815260200183815260200142815250908060018154018082558091505060019003906000526020600020906003020160009091909190915060008201518160000160006101000a81548173ffffffffffffffffffffffffffffffffffffffff021916908373ffffffffffffffffffffffffffffffffffffffff1602179055506020820151816001019080519060200190610242929190610921565b506040820151816002015550503373ffffffffffffffffffffffffffffffffffffffff167f5f7e16dc676677766a70e9c5628aa6c54ddb8b6e5188e2ae1e1f17f1ffbea7164283604051610297929190610db6565b60405180910390a26000655af3107a40009050478111156102ed576040517f08c379a00000000000000000000000000000000000000000000000000000000081526004016102e490610d5b565b60405180910390fd5b60003373ffffffffffffffffffffffffffffffffffffffff168260405161031390610c5d565b60006040518083038185875af1925050503d8060008114610350576040519150601f19603f3d011682016040523d82523d6000602084013e610355565b606091505b5050905080610399576040517f08c379a000000000000000000000000000000000000000000000000000000000815260040161039090610d7b565b60405180910390fd5b505050565b60006103de6040518060400160405280601781526020017f676574546f74616c417272617957617665506572736f6e000000000000000000815250610688565b60005b6000548110156104a25761048e6040518060400160405280601381526020017f576176652061646472657373205b25735d2021000000000000000000000000008152506001838154811061045e577f4e487b7100000000000000000000000000000000000000000000000000000000600052603260045260246000fd5b9060005260206000200160009054906101000a900473ffffffffffffffffffffffffffffffffffffffff166107c0565b60018161049b9190610ead565b90506103e1565b60018054905091505090565b60006104ee6040518060400160405280600d81526020017f676574546f74616c576176657300000000000000000000000000000000000000815250610688565b61052f6040518060400160405280601781526020017f5765206861766520256420746f74616c2077617665732100000000000000000081525060005461085c565b600054905090565b60606002805480602002602001604051908101604052809291908181526020016000905b8282101561067f57838290600052602060002090600302016040518060600160405290816000820160009054906101000a900473ffffffffffffffffffffffffffffffffffffffff1673ffffffffffffffffffffffffffffffffffffffff1673ffffffffffffffffffffffffffffffffffffffff1681526020016001820180546105e490610f81565b80601f016020809104026020016040519081016040528092919081815260200182805461061090610f81565b801561065d5780601f106106325761010080835404028352916020019161065d565b820191906000526020600020905b81548152906001019060200180831161064057829003601f168201915b505050505081526020016002820154815250508152602001906001019061055b565b50505050905090565b61071e8160405160240161069c9190610c94565b6040516020818303038152906040527f41304fac000000000000000000000000000000000000000000000000000000007bffffffffffffffffffffffffffffffffffffffffffffffffffffffff19166020820180517bffffffffffffffffffffffffffffffffffffffffffffffffffffffff83818316178352505050506108f8565b50565b6107bb83838360405160240161073993929190610ce6565b6040516020818303038152906040527fe0e9ad4f000000000000000000000000000000000000000000000000000000007bffffffffffffffffffffffffffffffffffffffffffffffffffffffff19166020820180517bffffffffffffffffffffffffffffffffffffffffffffffffffffffff83818316178352505050506108f8565b505050565b61085882826040516024016107d6929190610cb6565b6040516020818303038152906040527f319af333000000000000000000000000000000000000000000000000000000007bffffffffffffffffffffffffffffffffffffffffffffffffffffffff19166020820180517bffffffffffffffffffffffffffffffffffffffffffffffffffffffff83818316178352505050506108f8565b5050565b6108f48282604051602401610872929190610d2b565b6040516020818303038152906040527f9710a9d0000000000000000000000000000000000000000000000000000000007bffffffffffffffffffffffffffffffffffffffffffffffffffffffff19166020820180517bffffffffffffffffffffffffffffffffffffffffffffffffffffffff83818316178352505050506108f8565b5050565b60008151905060006a636f6e736f6c652e6c6f679050602083016000808483855afa5050505050565b82805461092d90610f81565b90600052602060002090601f01602090048101928261094f5760008555610996565b82601f1061096857805160ff1916838001178555610996565b82800160010185558215610996579182015b8281111561099557825182559160200191906001019061097a565b5b5090506109a391906109a7565b5090565b5b808211156109c05760008160009055506001016109a8565b5090565b60006109d76109d284610e0b565b610de6565b9050828152602081018484840111156109ef57600080fd5b6109fa848285610f3f565b509392505050565b600082601f830112610a1357600080fd5b8135610a238482602086016109c4565b91505092915050565b600060208284031215610a3e57600080fd5b600082013567ffffffffffffffff811115610a5857600080fd5b610a6484828501610a02565b91505092915050565b6000610a798383610bef565b905092915050565b610a8a81610f03565b82525050565b610a9981610f03565b82525050565b6000610aaa82610e4c565b610ab48185610e6f565b935083602082028501610ac685610e3c565b8060005b85811015610b025784840389528151610ae38582610a6d565b9450610aee83610e62565b925060208a01995050600181019050610aca565b50829750879550505050505092915050565b6000610b1f82610e57565b610b298185610e8b565b9350610b39818560208601610f4e565b610b4281611071565b840191505092915050565b6000610b5882610e57565b610b628185610e9c565b9350610b72818560208601610f4e565b610b7b81611071565b840191505092915050565b6000610b93603483610e9c565b9150610b9e82611082565b604082019050919050565b6000610bb6602783610e9c565b9150610bc1826110d1565b604082019050919050565b6000610bd9600083610e80565b9150610be482611120565b600082019050919050565b6000606083016000830151610c076000860182610a81565b5060208301518482036020860152610c1f8282610b14565b9150506040830151610c346040860182610c3f565b508091505092915050565b610c4881610f35565b82525050565b610c5781610f35565b82525050565b6000610c6882610bcc565b9150819050919050565b60006020820190508181036000830152610c8c8184610a9f565b905092915050565b60006020820190508181036000830152610cae8184610b4d565b905092915050565b60006040820190508181036000830152610cd08185610b4d565b9050610cdf6020830184610a90565b9392505050565b60006060820190508181036000830152610d008186610b4d565b9050610d0f6020830185610a90565b8181036040830152610d218184610b4d565b9050949350505050565b60006040820190508181036000830152610d458185610b4d565b9050610d546020830184610c4e565b9392505050565b60006020820190508181036000830152610d7481610b86565b9050919050565b60006020820190508181036000830152610d9481610ba9565b9050919050565b6000602082019050610db06000830184610c4e565b92915050565b6000604082019050610dcb6000830185610c4e565b8181036020830152610ddd8184610b4d565b90509392505050565b6000610df0610e01565b9050610dfc8282610fb3565b919050565b6000604051905090565b600067ffffffffffffffff821115610e2657610e25611042565b5b610e2f82611071565b9050602081019050919050565b6000819050602082019050919050565b600081519050919050565b600081519050919050565b6000602082019050919050565b600082825260208201905092915050565b600081905092915050565b600082825260208201905092915050565b600082825260208201905092915050565b6000610eb882610f35565b9150610ec383610f35565b9250827fffffffffffffffffffffffffffffffffffffffffffffffffffffffffffffffff03821115610ef857610ef7610fe4565b5b828201905092915050565b6000610f0e82610f15565b9050919050565b600073ffffffffffffffffffffffffffffffffffffffff82169050919050565b6000819050919050565b82818337600083830152505050565b60005b83811015610f6c578082015181840152602081019050610f51565b83811115610f7b576000848401525b50505050565b60006002820490506001821680610f9957607f821691505b60208210811415610fad57610fac611013565b5b50919050565b610fbc82611071565b810181811067ffffffffffffffff82111715610fdb57610fda611042565b5b80604052505050565b7f4e487b7100000000000000000000000000000000000000000000000000000000600052601160045260246000fd5b7f4e487b7100000000000000000000000000000000000000000000000000000000600052602260045260246000fd5b7f4e487b7100000000000000000000000000000000000000000000000000000000600052604160045260246000fd5b6000601f19601f8301169050919050565b7f547279696e6720746f207769746864726177206d6f7265206d6f6e657920746860008201527f616e2074686520636f6e7472616374206861732e000000000000000000000000602082015250565b7f4661696c656420746f207769746864726177206d6f6e65792066726f6d20636f60008201527f6e74726163742e00000000000000000000000000000000000000000000000000602082015250565b5056fea2646970667358221220aa3ec1e759121adfe6b09586339f73426572e7b2422ebe922bb3ca68ab99263464736f6c63430008040033",
  "linkReferences": {},
  "deployedLinkReferences": {}
}