{
  "_format": "hh-sol-artifact-1",
  "contractName": "WavePortal",
  "sourceName": "contracts/WavePortal.sol",
  "abi": [
    {
      "inputs": [],
      "stateMutability": "payable",
      "type": "constructor"
    },
    {
      "anonymous": false,
      "inputs": [
        {
          "indexed": true,
          "internalType": "address",
          "name": "from",
          "type": "address"
        },
        {
          "indexed": false,
          "internalType": "uint256",
          "name": "timestamp",
          "type": "uint256"
        },
        {
          "indexed": false,
          "internalType": "string",
          "name": "message",
          "type": "string"
        }
      ],
      "name": "NewWave",
      "type": "event"
    },
    {
      "inputs": [],
      "name": "getAllWaves",
      "outputs": [
        {
          "components": [
            {
              "internalType": "address",
              "name": "waver",
              "type": "address"
            },
            {
              "internalType": "string",
              "name": "message",
              "type": "string"
            },
            {
              "internalType": "uint256",
              "name": "timestamp",
              "type": "uint256"
            }
          ],
          "internalType": "struct WavePortal.Wave[]",
          "name": "",
          "type": "tuple[]"
        }
      ],
      "stateMutability": "view",
      "type": "function"
    },
    {
      "inputs": [],
      "name": "getTotalArrayWavePerson",
      "outputs": [
        {
          "internalType": "uint256",
          "name": "",
          "type": "uint256"
        }
      ],
      "stateMutability": "view",
      "type": "function"
    },
    {
      "inputs": [],
      "name": "getTotalWaves",
      "outputs": [
        {
          "internalType": "uint256",
          "name": "",
          "type": "uint256"
        }
      ],
      "stateMutability": "view",
      "type": "function"
    },
    {
      "inputs": [
        {
          "internalType": "address",
          "name": "",
          "type": "address"
        }
      ],
      "name": "lastWavedAt",
      "outputs": [
        {
          "internalType": "uint256",
          "name": "",
          "type": "uint256"
        }
      ],
      "stateMutability": "view",
      "type": "function"
    },
    {
      "inputs": [
        {
          "internalType": "string",
          "name": "_message",
          "type": "string"
        }
      ],
      "name": "wave",
      "outputs": [],
      "stateMutability": "nonpayable",
      "type": "function"
    }
  ],
  "bytecode": "0x60806040526200004f6040518060400160405280601981526020017f4920414d20534d41525420434f4e54524143542e20504f472e000000000000008152506200007760201b620008241760201c565b606444426200005f9190620001c4565b6200006b919062000261565b60028190555062000308565b62000117816040516024016200008e919062000184565b6040516020818303038152906040527f41304fac000000000000000000000000000000000000000000000000000000007bffffffffffffffffffffffffffffffffffffffffffffffffffffffff19166020820180517bffffffffffffffffffffffffffffffffffffffffffffffffffffffff83818316178352505050506200011a60201b60201c565b50565b60008151905060006a636f6e736f6c652e6c6f679050602083016000808483855afa5050505050565b60006200015082620001a8565b6200015c8185620001b3565b93506200016e8185602086016200022b565b6200017981620002f7565b840191505092915050565b60006020820190508181036000830152620001a0818462000143565b905092915050565b600081519050919050565b600082825260208201905092915050565b6000620001d18262000221565b9150620001de8362000221565b9250827fffffffffffffffffffffffffffffffffffffffffffffffffffffffffffffffff0382111562000216576200021562000299565b5b828201905092915050565b6000819050919050565b60005b838110156200024b5780820151818401526020810190506200022e565b838111156200025b576000848401525b50505050565b60006200026e8262000221565b91506200027b8362000221565b9250826200028e576200028d620002c8565b5b828206905092915050565b7f4e487b7100000000000000000000000000000000000000000000000000000000600052601160045260246000fd5b7f4e487b7100000000000000000000000000000000000000000000000000000000600052601260045260246000fd5b6000601f19601f8301169050919050565b61141680620003186000396000f3fe608060405234801561001057600080fd5b50600436106100575760003560e01c8063449d46c01461005c5780636c94a422146100785780639a2cdc0814610096578063a42a4663146100b4578063bd43a908146100e4575b600080fd5b61007660048036038101906100719190610c06565b610102565b005b610080610522565b60405161008d9190610fb8565b60405180910390f35b61009e610632565b6040516100ab9190610fb8565b60405180910390f35b6100ce60048036038101906100c99190610bdd565b6106bb565b6040516100db9190610fb8565b60405180910390f35b6100ec6106d3565b6040516100f99190610e6f565b60405180910390f35b42610384600460003373ffffffffffffffffffffffffffffffffffffffff1673ffffffffffffffffffffffffffffffffffffffff1681526020019081526020016000205461015091906110ca565b10610190576040517f08c379a000000000000000000000000000000000000000000000000000000000815260040161018790610f98565b60405180910390fd5b42600460003373ffffffffffffffffffffffffffffffffffffffff1673ffffffffffffffffffffffffffffffffffffffff1681526020019081526020016000208190555060016000808282546101e691906110ca565b925050819055506001339080600181540180825580915050600190039060005260206000200160009091909190916101000a81548173ffffffffffffffffffffffffffffffffffffffff021916908373ffffffffffffffffffffffffffffffffffffffff1602179055506102906040518060400160405280601781526020017f257320776176656420772f206d6573736167652025732100000000000000000081525033836108bd565b600360405180606001604052803373ffffffffffffffffffffffffffffffffffffffff16815260200183815260200142815250908060018154018082558091505060019003906000526020600020906003020160009091909190915060008201518160000160006101000a81548173ffffffffffffffffffffffffffffffffffffffff021916908373ffffffffffffffffffffffffffffffffffffffff160217905550602082015181600101908051906020019061034f929190610abd565b506040820151816002015550506064600254424461036d91906110ca565b61037791906110ca565b6103819190611201565b6002819055506103c86040518060400160405280601781526020017f526162646f6d20232067656e657261746564203a20256400000000000000000081525060025461095c565b6032600254116104cf576000655af3107a4000905047811115610420576040517f08c379a000000000000000000000000000000000000000000000000000000000815260040161041790610f58565b60405180910390fd5b60003373ffffffffffffffffffffffffffffffffffffffff168260405161044690610e5a565b60006040518083038185875af1925050503d8060008114610483576040519150601f19603f3d011682016040523d82523d6000602084013e610488565b606091505b50509050806104cc576040517f08c379a00000000000000000000000000000000000000000000000000000000081526004016104c390610f78565b60405180910390fd5b50505b3373ffffffffffffffffffffffffffffffffffffffff167f5f7e16dc676677766a70e9c5628aa6c54ddb8b6e5188e2ae1e1f17f1ffbea7164283604051610517929190610fd3565b60405180910390a250565b60006105626040518060400160405280601781526020017f676574546f74616c417272617957617665506572736f6e000000000000000000815250610824565b60005b600054811015610626576106126040518060400160405280601381526020017f576176652061646472657373205b25735d202100000000000000000000000000815250600183815481106105e2577f4e487b7100000000000000000000000000000000000000000000000000000000600052603260045260246000fd5b9060005260206000200160009054906101000a900473ffffffffffffffffffffffffffffffffffffffff166109f8565b60018161061f91906110ca565b9050610565565b60018054905091505090565b60006106726040518060400160405280600d81526020017f676574546f74616c576176657300000000000000000000000000000000000000815250610824565b6106b36040518060400160405280601781526020017f5765206861766520256420746f74616c2077617665732100000000000000000081525060005461095c565b600054905090565b60046020528060005260406000206000915090505481565b60606003805480602002602001604051908101604052809291908181526020016000905b8282101561081b57838290600052602060002090600302016040518060600160405290816000820160009054906101000a900473ffffffffffffffffffffffffffffffffffffffff1673ffffffffffffffffffffffffffffffffffffffff1673ffffffffffffffffffffffffffffffffffffffff1681526020016001820180546107809061119e565b80601f01602080910402602001604051908101604052809291908181526020018280546107ac9061119e565b80156107f95780601f106107ce576101008083540402835291602001916107f9565b820191906000526020600020905b8154815290600101906020018083116107dc57829003601f168201915b50505050508152602001600282015481525050815260200190600101906106f7565b50505050905090565b6108ba816040516024016108389190610e91565b6040516020818303038152906040527f41304fac000000000000000000000000000000000000000000000000000000007bffffffffffffffffffffffffffffffffffffffffffffffffffffffff19166020820180517bffffffffffffffffffffffffffffffffffffffffffffffffffffffff8381831617835250505050610a94565b50565b6109578383836040516024016108d593929190610ee3565b6040516020818303038152906040527fe0e9ad4f000000000000000000000000000000000000000000000000000000007bffffffffffffffffffffffffffffffffffffffffffffffffffffffff19166020820180517bffffffffffffffffffffffffffffffffffffffffffffffffffffffff8381831617835250505050610a94565b505050565b6109f48282604051602401610972929190610f28565b6040516020818303038152906040527f9710a9d0000000000000000000000000000000000000000000000000000000007bffffffffffffffffffffffffffffffffffffffffffffffffffffffff19166020820180517bffffffffffffffffffffffffffffffffffffffffffffffffffffffff8381831617835250505050610a94565b5050565b610a908282604051602401610a0e929190610eb3565b6040516020818303038152906040527f319af333000000000000000000000000000000000000000000000000000000007bffffffffffffffffffffffffffffffffffffffffffffffffffffffff19166020820180517bffffffffffffffffffffffffffffffffffffffffffffffffffffffff8381831617835250505050610a94565b5050565b60008151905060006a636f6e736f6c652e6c6f679050602083016000808483855afa5050505050565b828054610ac99061119e565b90600052602060002090601f016020900481019282610aeb5760008555610b32565b82601f10610b0457805160ff1916838001178555610b32565b82800160010185558215610b32579182015b82811115610b31578251825591602001919060010190610b16565b5b509050610b3f9190610b43565b5090565b5b80821115610b5c576000816000905550600101610b44565b5090565b6000610b73610b6e84611028565b611003565b905082815260208101848484011115610b8b57600080fd5b610b9684828561115c565b509392505050565b600081359050610bad816113c9565b92915050565b600082601f830112610bc457600080fd5b8135610bd4848260208601610b60565b91505092915050565b600060208284031215610bef57600080fd5b6000610bfd84828501610b9e565b91505092915050565b600060208284031215610c1857600080fd5b600082013567ffffffffffffffff811115610c3257600080fd5b610c3e84828501610bb3565b91505092915050565b6000610c538383610dec565b905092915050565b610c6481611120565b82525050565b610c7381611120565b82525050565b6000610c8482611069565b610c8e818561108c565b935083602082028501610ca085611059565b8060005b85811015610cdc5784840389528151610cbd8582610c47565b9450610cc88361107f565b925060208a01995050600181019050610ca4565b50829750879550505050505092915050565b6000610cf982611074565b610d0381856110a8565b9350610d1381856020860161116b565b610d1c816112ee565b840191505092915050565b6000610d3282611074565b610d3c81856110b9565b9350610d4c81856020860161116b565b610d55816112ee565b840191505092915050565b6000610d6d6034836110b9565b9150610d78826112ff565b604082019050919050565b6000610d906027836110b9565b9150610d9b8261134e565b604082019050919050565b6000610db360008361109d565b9150610dbe8261139d565b600082019050919050565b6000610dd66008836110b9565b9150610de1826113a0565b602082019050919050565b6000606083016000830151610e046000860182610c5b565b5060208301518482036020860152610e1c8282610cee565b9150506040830151610e316040860182610e3c565b508091505092915050565b610e4581611152565b82525050565b610e5481611152565b82525050565b6000610e6582610da6565b9150819050919050565b60006020820190508181036000830152610e898184610c79565b905092915050565b60006020820190508181036000830152610eab8184610d27565b905092915050565b60006040820190508181036000830152610ecd8185610d27565b9050610edc6020830184610c6a565b9392505050565b60006060820190508181036000830152610efd8186610d27565b9050610f0c6020830185610c6a565b8181036040830152610f1e8184610d27565b9050949350505050565b60006040820190508181036000830152610f428185610d27565b9050610f516020830184610e4b565b9392505050565b60006020820190508181036000830152610f7181610d60565b9050919050565b60006020820190508181036000830152610f9181610d83565b9050919050565b60006020820190508181036000830152610fb181610dc9565b9050919050565b6000602082019050610fcd6000830184610e4b565b92915050565b6000604082019050610fe86000830185610e4b565b8181036020830152610ffa8184610d27565b90509392505050565b600061100d61101e565b905061101982826111d0565b919050565b6000604051905090565b600067ffffffffffffffff821115611043576110426112bf565b5b61104c826112ee565b9050602081019050919050565b6000819050602082019050919050565b600081519050919050565b600081519050919050565b6000602082019050919050565b600082825260208201905092915050565b600081905092915050565b600082825260208201905092915050565b600082825260208201905092915050565b60006110d582611152565b91506110e083611152565b9250827fffffffffffffffffffffffffffffffffffffffffffffffffffffffffffffffff0382111561111557611114611232565b5b828201905092915050565b600061112b82611132565b9050919050565b600073ffffffffffffffffffffffffffffffffffffffff82169050919050565b6000819050919050565b82818337600083830152505050565b60005b8381101561118957808201518184015260208101905061116e565b83811115611198576000848401525b50505050565b600060028204905060018216806111b657607f821691505b602082108114156111ca576111c9611290565b5b50919050565b6111d9826112ee565b810181811067ffffffffffffffff821117156111f8576111f76112bf565b5b80604052505050565b600061120c82611152565b915061121783611152565b92508261122757611226611261565b5b828206905092915050565b7f4e487b7100000000000000000000000000000000000000000000000000000000600052601160045260246000fd5b7f4e487b7100000000000000000000000000000000000000000000000000000000600052601260045260246000fd5b7f4e487b7100000000000000000000000000000000000000000000000000000000600052602260045260246000fd5b7f4e487b7100000000000000000000000000000000000000000000000000000000600052604160045260246000fd5b6000601f19601f8301169050919050565b7f547279696e6720746f207769746864726177206d6f7265206d6f6e657920746860008201527f616e2074686520636f6e7472616374206861732e000000000000000000000000602082015250565b7f4661696c656420746f207769746864726177206d6f6e65792066726f6d20636f60008201527f6e74726163742e00000000000000000000000000000000000000000000000000602082015250565b50565b7f576169742031356d000000000000000000000000000000000000000000000000600082015250565b6113d281611120565b81146113dd57600080fd5b5056fea26469706673582212203bbb2ee2feceb85b137d0cc0bbbed0a537d82754376cdaebfd556cc9069fd75664736f6c63430008040033",
  "linkReferences": {},
  "deployedLinkReferences": {}
}