{
  "_format": "hh-sol-artifact-1",
  "contractName": "WavePortal",
  "sourceName": "contracts/WavePortal.sol",
  "abi": [
    {
      "inputs": [],
      "stateMutability": "nonpayable",
      "type": "constructor"
    },
    {
      "anonymous": false,
      "inputs": [
        {
          "indexed": true,
          "internalType": "address",
          "name": "from",
          "type": "address"
        },
        {
          "indexed": false,
          "internalType": "uint256",
          "name": "timestamp",
          "type": "uint256"
        },
        {
          "indexed": false,
          "internalType": "string",
          "name": "message",
          "type": "string"
        }
      ],
      "name": "NewWave",
      "type": "event"
    },
    {
      "inputs": [],
      "name": "getAllWaves",
      "outputs": [
        {
          "components": [
            {
              "internalType": "address",
              "name": "waver",
              "type": "address"
            },
            {
              "internalType": "string",
              "name": "message",
              "type": "string"
            },
            {
              "internalType": "uint256",
              "name": "timestamp",
              "type": "uint256"
            }
          ],
          "internalType": "struct WavePortal.Wave[]",
          "name": "",
          "type": "tuple[]"
        }
      ],
      "stateMutability": "view",
      "type": "function"
    },
    {
      "inputs": [],
      "name": "getTotalArrayWavePerson",
      "outputs": [
        {
          "internalType": "uint256",
          "name": "",
          "type": "uint256"
        }
      ],
      "stateMutability": "view",
      "type": "function"
    },
    {
      "inputs": [],
      "name": "getTotalWaves",
      "outputs": [
        {
          "internalType": "uint256",
          "name": "",
          "type": "uint256"
        }
      ],
      "stateMutability": "view",
      "type": "function"
    },
    {
      "inputs": [
        {
          "internalType": "string",
          "name": "_message",
          "type": "string"
        }
      ],
      "name": "wave",
      "outputs": [],
      "stateMutability": "nonpayable",
      "type": "function"
    }
  ],
  "bytecode": "0x60806040523480156200001157600080fd5b506200005d6040518060400160405280601981526020017f4920414d20534d41525420434f4e54524143542e20504f472e000000000000008152506200006360201b6200058c1760201c565b620001f7565b62000103816040516024016200007a919062000170565b6040516020818303038152906040527f41304fac000000000000000000000000000000000000000000000000000000007bffffffffffffffffffffffffffffffffffffffffffffffffffffffff19166020820180517bffffffffffffffffffffffffffffffffffffffffffffffffffffffff83818316178352505050506200010660201b60201c565b50565b60008151905060006a636f6e736f6c652e6c6f679050602083016000808483855afa5050505050565b60006200013c8262000194565b6200014881856200019f565b93506200015a818560208601620001b0565b6200016581620001e6565b840191505092915050565b600060208201905081810360008301526200018c81846200012f565b905092915050565b600081519050919050565b600082825260208201905092915050565b60005b83811015620001d0578082015181840152602081019050620001b3565b83811115620001e0576000848401525b50505050565b6000601f19601f8301169050919050565b610ef380620002076000396000f3fe608060405234801561001057600080fd5b506004361061004c5760003560e01c8063449d46c0146100515780636c94a4221461006d5780639a2cdc081461008b578063bd43a908146100a9575b600080fd5b61006b60048036038101906100669190610930565b6100c7565b005b6100756102a2565b6040516100829190610be1565b60405180910390f35b6100936103b2565b6040516100a09190610be1565b60405180910390f35b6100b161043b565b6040516100be9190610af8565b60405180910390f35b60016000808282546100d99190610ce8565b925050819055506001339080600181540180825580915050600190039060005260206000200160009091909190916101000a81548173ffffffffffffffffffffffffffffffffffffffff021916908373ffffffffffffffffffffffffffffffffffffffff1602179055506101836040518060400160405280601781526020017f257320776176656420772f206d657373616765202573210000000000000000008152503383610625565b600260405180606001604052803373ffffffffffffffffffffffffffffffffffffffff16815260200183815260200142815250908060018154018082558091505060019003906000526020600020906003020160009091909190915060008201518160000160006101000a81548173ffffffffffffffffffffffffffffffffffffffff021916908373ffffffffffffffffffffffffffffffffffffffff1602179055506020820151816001019080519060200190610242929190610825565b506040820151816002015550503373ffffffffffffffffffffffffffffffffffffffff167f5f7e16dc676677766a70e9c5628aa6c54ddb8b6e5188e2ae1e1f17f1ffbea7164283604051610297929190610bfc565b60405180910390a250565b60006102e26040518060400160405280601781526020017f676574546f74616c417272617957617665506572736f6e00000000000000000081525061058c565b60005b6000548110156103a6576103926040518060400160405280601381526020017f576176652061646472657373205b25735d20210000000000000000000000000081525060018381548110610362577f4e487b7100000000000000000000000000000000000000000000000000000000600052603260045260246000fd5b9060005260206000200160009054906101000a900473ffffffffffffffffffffffffffffffffffffffff166106c4565b60018161039f9190610ce8565b90506102e5565b60018054905091505090565b60006103f26040518060400160405280600d81526020017f676574546f74616c57617665730000000000000000000000000000000000000081525061058c565b6104336040518060400160405280601781526020017f5765206861766520256420746f74616c20776176657321000000000000000000815250600054610760565b600054905090565b60606002805480602002602001604051908101604052809291908181526020016000905b8282101561058357838290600052602060002090600302016040518060600160405290816000820160009054906101000a900473ffffffffffffffffffffffffffffffffffffffff1673ffffffffffffffffffffffffffffffffffffffff1673ffffffffffffffffffffffffffffffffffffffff1681526020016001820180546104e890610dbc565b80601f016020809104026020016040519081016040528092919081815260200182805461051490610dbc565b80156105615780601f1061053657610100808354040283529160200191610561565b820191906000526020600020905b81548152906001019060200180831161054457829003601f168201915b505050505081526020016002820154815250508152602001906001019061045f565b50505050905090565b610622816040516024016105a09190610b1a565b6040516020818303038152906040527f41304fac000000000000000000000000000000000000000000000000000000007bffffffffffffffffffffffffffffffffffffffffffffffffffffffff19166020820180517bffffffffffffffffffffffffffffffffffffffffffffffffffffffff83818316178352505050506107fc565b50565b6106bf83838360405160240161063d93929190610b6c565b6040516020818303038152906040527fe0e9ad4f000000000000000000000000000000000000000000000000000000007bffffffffffffffffffffffffffffffffffffffffffffffffffffffff19166020820180517bffffffffffffffffffffffffffffffffffffffffffffffffffffffff83818316178352505050506107fc565b505050565b61075c82826040516024016106da929190610b3c565b6040516020818303038152906040527f319af333000000000000000000000000000000000000000000000000000000007bffffffffffffffffffffffffffffffffffffffffffffffffffffffff19166020820180517bffffffffffffffffffffffffffffffffffffffffffffffffffffffff83818316178352505050506107fc565b5050565b6107f88282604051602401610776929190610bb1565b6040516020818303038152906040527f9710a9d0000000000000000000000000000000000000000000000000000000007bffffffffffffffffffffffffffffffffffffffffffffffffffffffff19166020820180517bffffffffffffffffffffffffffffffffffffffffffffffffffffffff83818316178352505050506107fc565b5050565b60008151905060006a636f6e736f6c652e6c6f679050602083016000808483855afa5050505050565b82805461083190610dbc565b90600052602060002090601f016020900481019282610853576000855561089a565b82601f1061086c57805160ff191683800117855561089a565b8280016001018555821561089a579182015b8281111561089957825182559160200191906001019061087e565b5b5090506108a791906108ab565b5090565b5b808211156108c45760008160009055506001016108ac565b5090565b60006108db6108d684610c51565b610c2c565b9050828152602081018484840111156108f357600080fd5b6108fe848285610d7a565b509392505050565b600082601f83011261091757600080fd5b81356109278482602086016108c8565b91505092915050565b60006020828403121561094257600080fd5b600082013567ffffffffffffffff81111561095c57600080fd5b61096884828501610906565b91505092915050565b600061097d8383610a8a565b905092915050565b61098e81610d3e565b82525050565b61099d81610d3e565b82525050565b60006109ae82610c92565b6109b88185610cb5565b9350836020820285016109ca85610c82565b8060005b85811015610a0657848403895281516109e78582610971565b94506109f283610ca8565b925060208a019950506001810190506109ce565b50829750879550505050505092915050565b6000610a2382610c9d565b610a2d8185610cc6565b9350610a3d818560208601610d89565b610a4681610eac565b840191505092915050565b6000610a5c82610c9d565b610a668185610cd7565b9350610a76818560208601610d89565b610a7f81610eac565b840191505092915050565b6000606083016000830151610aa26000860182610985565b5060208301518482036020860152610aba8282610a18565b9150506040830151610acf6040860182610ada565b508091505092915050565b610ae381610d70565b82525050565b610af281610d70565b82525050565b60006020820190508181036000830152610b1281846109a3565b905092915050565b60006020820190508181036000830152610b348184610a51565b905092915050565b60006040820190508181036000830152610b568185610a51565b9050610b656020830184610994565b9392505050565b60006060820190508181036000830152610b868186610a51565b9050610b956020830185610994565b8181036040830152610ba78184610a51565b9050949350505050565b60006040820190508181036000830152610bcb8185610a51565b9050610bda6020830184610ae9565b9392505050565b6000602082019050610bf66000830184610ae9565b92915050565b6000604082019050610c116000830185610ae9565b8181036020830152610c238184610a51565b90509392505050565b6000610c36610c47565b9050610c428282610dee565b919050565b6000604051905090565b600067ffffffffffffffff821115610c6c57610c6b610e7d565b5b610c7582610eac565b9050602081019050919050565b6000819050602082019050919050565b600081519050919050565b600081519050919050565b6000602082019050919050565b600082825260208201905092915050565b600082825260208201905092915050565b600082825260208201905092915050565b6000610cf382610d70565b9150610cfe83610d70565b9250827fffffffffffffffffffffffffffffffffffffffffffffffffffffffffffffffff03821115610d3357610d32610e1f565b5b828201905092915050565b6000610d4982610d50565b9050919050565b600073ffffffffffffffffffffffffffffffffffffffff82169050919050565b6000819050919050565b82818337600083830152505050565b60005b83811015610da7578082015181840152602081019050610d8c565b83811115610db6576000848401525b50505050565b60006002820490506001821680610dd457607f821691505b60208210811415610de857610de7610e4e565b5b50919050565b610df782610eac565b810181811067ffffffffffffffff82111715610e1657610e15610e7d565b5b80604052505050565b7f4e487b7100000000000000000000000000000000000000000000000000000000600052601160045260246000fd5b7f4e487b7100000000000000000000000000000000000000000000000000000000600052602260045260246000fd5b7f4e487b7100000000000000000000000000000000000000000000000000000000600052604160045260246000fd5b6000601f19601f830116905091905056fea26469706673582212207ff5f260748bce11dc450dd99cf5f54c4ab786d801d6ebe675f698c1950f8e8464736f6c63430008040033",
  "linkReferences": {},
  "deployedLinkReferences": {}
}